:020000040000FA
:08000000803102288731E52F51
:1007380016302100970008002000110E890C01399D
:10074800A52B080071082000EB007008EA000800DB
:10075800640080010131890BAD2B00347830210011
:1007680099009A01980124009D0108008B1021002E
:1007780015170030F0000030F1008331A6238331D3
:100788000800093023009F0090309D0024309E000F
:10079800A0309B0001309C000800F000D32B200003
:1007A800111ED72BD82BD32BD92B700823009A00D6
:1007B80008008431172483318331B2238331833194
:1007C8009C2383318331BA2383318331C523833119
:1007D8000800EE2B2000911EF22BF32BEE2B2300AA
:1007E8009D1CF72BF82BFB2B1D121D16FB2B190834
:1007F800FD2B08000C2C7108840072088500000885
:100808008331D12383310130F1070030F23D0C2CC4
:1008180071088400720885001200031D142C152C21
:10082800FF2B162C080022008C018E013730210086
:100838008C002A308E000F3023008E0017308C0079
:1008480024008C018E012100951725008C018E0152
:10085800373026008C003F308E0015303C00A40055
:1008680016303D00A4000800F7007708F20072086F
:10087800F600432C0130F2007208F707432C770882
:10088800860087010108031D4A2C4B2C3E2C4C2C5A
:100898007608F2000030F300F209F309F20A0319AE
:1008A800F30A7708F4000030F50072087407F000C6
:1008B8007308753DF100602C0800F4007408F3001B
:1008C8007308F5007D2C0130F1020030F23B750809
:1008D80086008701F50A700884008501F00A00087F
:1008E800C03F8908031D792C7A2C7D2C8E2C8E2CE8
:1008F8007D2C71087204031D822C832C672C8E2C8E
:100908008E2C75088600870181010130F300730879
:10091800F5078E2C0130F1020030F23B710A031DFD
:10092800992C720A031D992C9A2C852C9B2C080053
:10093800F400A72C0130F2007208F4070130F00728
:100948000030F13DA72C700884007108850000086C
:10095800F20074088600870101087206031DB52C91
:10096800B62CC02C7408860087010108031DBD2C15
:10097800BE2C9E2CC02CC02C7008840071088500E9
:100988000008F200F301F209F309F20A0319F30A65
:1009980074088600870101087207F00073080318BD
:1009A800730AF100D72C0800FD007D08FB007B08C6
:1009B800FC007D088431382484317008FB007B08F2
:1009C800FD07FD2C0130F9020030FA3B780886005B
:1009D80087010108FB007D08860087017B088100EC
:1009E8000130FB007B08F8070130FB007B08FD079E
:1009F800FD2C79087A040319022D032D0D2D780892
:100A0800860087010108031D0A2D0B2DE62C0D2DEC
:100A18000D2D7D088600870181010130FB007B08D0
:100A2800FD07162D0800F900F701F801F301F4019C
:100A3800F501F6015A2D8331ED238531F200720854
:100A4800FA000D307A06031D2A2D2B2D302D01308A
:100A5800F3000030F4003C2D0A307A06031D352DD2
:100A6800362D3C2D0130F5000030F6003C2D3C2D94
:100A78007A08F2007908860087017208810001303F
:100A8800F2007208F9070130F7070030F83D7308E3
:100A980074040319502D512D5A2D75087604031925
:100AA800562D572D5A2D652D652D5A2D7108780212
:100AB800031D602D70087702031C632D642D1F2D04
:100AC800652D7808F1007708F0006A2D08002000ED
:100AD800E500E301E401E601E701A030860001300A
:100AE800870023308400003085004030A2001600C3
:100AF8001A00A20B7B2D1330F1008830F2008331ED
:100B0800FE2385314030F0000030F100233085317C
:100B18001725853171082000E7007008E6002330AA
:100B2800A2002208F0006708F2006608F1006508D4
:100B380084316124853120006608E3076708E43DB5
:100B48004030F0000030F100233085311725853121
:100B580071082000E7007008E6002330A200220890
:100B6800F8006708FA006608F90065088431D82497
:100B7800853120006608E3076708E43D6408A100A2
:100B88006308A000C72D08002000E500E301E40188
:100B9800E601E70120308600023087002330840018
:100BA800003085004030A20016001A00A20BD82D94
:100BB8000030F1008830F2008331FE238531403067
:100BC800F0000030F1002330853117258531710898
:100BD8002000E7007008E6002330A2002208F00099
:100BE8006708F2006608F1006508843161248531E0
:100BF80020006608E3076708E43D4030F000003055
:100C0800F100233085311725853171082000E70070
:100C18007008E6002330A2002208F8006708FA00EE
:100C28006608F90065088431D824853120006608F3
:100C3800E3076708E43D6408A1006308A000242EC8
:100C48000800F8007808F4007408F90072087304C2
:100C5800031D2F2E302E322ECE2ECE2E7008F400ED
:100C6800790886008701740881007008F40072080A
:100C7800FF3E7907F5007508860087017408810032
:100C88000030730203300319720203184C2E4D2EE4
:100C98004F2ECE2ECE2E7008F400790A86008701DA
:100CA800740881007008F4007908023E8600870104
:100CB800740881007008F4007208FE3E7907F50098
:100CC800750886008701740881007008F4007208AE
:100CD800FD3E7907F50075088600870174088100D4
:100CE8000030730207300319720203187C2E7D2E20
:100CF8007F2ECE2ECE2E7008F4007908033E860093
:100D08008701740881007008F4007208FC3E7907B6
:100D1800F5007508860087017408810000307302A9
:100D280009300319720203189A2E9B2E9D2ECE2E7F
:100D3800CE2E7909F4007A09F500F40A0319F50AA8
:100D480000307405F60000307505F7007608F400E9
:100D58007408F9077608F2027708F33BFC30F205CD
:100D6800FF30F305C72E7008F40079088600870164
:100D7800740881000130F2020030F33B0130F400C6
:100D88007408F907C72E72087304031DCC2ECD2EE4
:100D9800B72ECE2E08008331DD2386312030860021
:100DA80001308700A03084000030850040302000EA
:100DB800E80016001A00E80BDD2E2100E001E10131
:100DC800E52E05302000E9000F30E800F130890BEE
:100DD800EB2EE80BEB2EE90BEB2E0C2F4030F0003E
:100DE8000030F100A03085311725863171082100C7
:100DF800E1007008E00005302000E9000F30E8004D
:100E0800F130890B052FE80B052FE90B052F0C2F67
:100E18008331A0238631003A031D132F142FF22E9D
:100E2800152F22000E15182F05302000E9000F306D
:100E3800E800F130890B1E2FE80B1E2FE90B1E2F3F
:100E4800252F22000E1105302000E9000F30E800A0
:100E5800F130890B2D2FE80B2D2FE90B2D2F342F77
:100E680022000E1505302000E9000F30E800F130AF
:100E7800890B3C2FE80B3C2FE90B3C2F432F22001A
:100E88000E1105302000E9000F30E800F130890B21
:100E98004B2FE80B4B2FE90B4B2FA03085316B25DF
:100EA8008631200021082100E100200020082100CF
:100EB800E0000C30F0008830F100A03084319C2430
:100EC800863170087104031D6A2F6B2F8A2F220048
:100ED8000E156E2F05302000E9000F30E800F130C4
:100EE800890B742FE80B742FE90B742F7B2F2200CA
:100EF8000E1105302000E9000F30E800F130890BB1
:100F0800832FE80B832FE90B832F8E2F22000E14DB
:100F18008E2F8E2F0030F000F1004030F2000030AC
:100F2800F300A030863125268631A0308531C825CA
:100F38008631200021082100E1002000200821003E
:100F4800E0000C30F0008830F100A03084319C249F
:100F5800863170087104031DB22FB32FD22F2200DF
:100F68000E15B62F05302000E9000F30E800F130EB
:100F7800890BBC2FE80BBC2FE90BBC2FC32F220019
:100F88000E1105302000E9000F30E800F130890B20
:100F9800CB2FE80BCB2FE90BCB2FD62F22000E142B
:100FA800D62FD62F0030F000F1004030F20000308C
:100FB800F300A030863125268631E52EE52E8031D6
:100FC8000228203084000130850040308331AC2372
:100FD8008731A03084000130850040308331AC2354
:100FE8008731203084000230850040308331AC23C3
:100FF800873120008631CF2E413454342B3443348A
:10100800503449344E343D343F340D340A340034BE
:101018000D340A344F344B340D340A34003441341F
:0810280054340D340A34003485
:020000040001F9
:04000E00E4FFFFFE0E
:00000001FF
