:020000040000FA
:08000000803102288731F52F41
:100D020016302100970008007108FD007008FC00F1
:100D12000800640080010131890B8B2E0034783089
:100D2200210099009A01980124009D0108008B106E
:100D3200210015170030F0000030F10086318526C1
:100D420086310800F000A52E2000111EA92EAA2E21
:100D5200A52EAB2E700823009A000800093023004C
:100D62009F0090309D0024309E00A0309B000130F7
:100D72009C0008008631F526863186319026863120
:100D82008631812686318631982686318631AF2694
:100D920086310800CC2E2000911ED02ED12ECC2ED2
:100DA20023009D1CD52ED62ED92E1D121D16D92EEE
:100DB2001908DB2E0800EA2E7108840072088500EB
:100DC20000088631A32686310130F1070030F23D5A
:100DD200EA2E71088400720885001200031DF22EAB
:100DE200F32EDD2EF42E080022008C018E01373006
:100DF20021008C002A308E000F3023008E00173025
:100E02008C0024008C018E012100951725008C0195
:100E12008E01373026008C003F308E0015303C00AA
:100E2200A40016303D00A4000800F400212F013078
:100E3200F2007208F4070130F0070030F13D212F73
:100E420070088400710885000008F20074088600AA
:100E5200870101087206031D2F2F302F3A2F7408C5
:100E6200860087010108031D372F382F182F3A2FCC
:100E72003A2F70088400710885000008F200F3011F
:100E8200F209F309F20A0319F30A740886008701CA
:100E920001087207F00073080318730AF100512F5A
:100EA20008008631BB268731323086000030870049
:100EB20020308400003085001030FB0016001A003C
:100EC200FB0B5F2F2000B001B101672F0530F1004D
:100ED2008830F2008631DC2687311030F000003095
:100EE200F10020308731A227873171082000B1003C
:100EF2007008B0001030F0000030F100203087316F
:100F0200A227873171082000B1007008B0000030BC
:100F1200F0008830F10020308731162787317008C1
:100F22007104031D952F962F9A2F22000E15672FFD
:100F3200672F22000E14672F672F672F672F8031CC
:100F42000228F700F801F901F301F401F501F601B5
:100F5200E92F8631CB268731F2007208FA000D3074
:100F62007A06031DB52FB62FBB2F0130F3000030D8
:100F7200F400C72F0A307A06031DC02FC12FC72FD6
:100F82000130F5000030F600C72FC72F7A08F200B3
:100F9200770886008701720881000130F20072082A
:100FA200F7070130F8070030F93D7308740403199C
:100FB200DB2FDC2FE92F750876040319E12FE22FCE
:100FC200E92F7908F1007808F000F42FF42FE92FC7
:100FD20071087902031DEF2F70087802031CF22FAB
:100FE200F32FAA2FF42F080032308400003085003E
:100FF200103086318A26873120008731522F4F34B4
:101002004B340D340A340034413454340A3400343D
:020000040001F9
:04000E00E4FFFFFE0E
:00000001FF
