:020000040000FA
:08000000803102288731F52F41
:100CA00016302100970008007108FD007008FC0054
:100CB0000800640080010131890B5A2E003478301D
:100CC000210099009A01980124009D0108008B10D1
:100CD000210015170030F0000030F1008631542655
:100CE00086310800F000742E2000111E782E792E17
:100CF000742E7A2E700823009A0008000930230011
:100D00009F0090309D0024309E00A0309B00013059
:100D10009C0008008631C426863186315F268631E4
:100D200086315026863186316726863186317E2689
:100D3000863108009B2E2000911E9F2EA02E9B2EF8
:100D400023009D1CA42EA52EA82E1D121D16A82E14
:100D50001908AA2E0800B92E7108840072088500AF
:100D600000088631722686310130F1070030F23DED
:100D7000B92E71088400720885001200031DC12E6F
:100D8000C22EAC2EC32E080022008C018E013730FB
:100D900021008C002A308E000F3023008E00173087
:100DA0008C0024008C018E012100951725008C01F8
:100DB0008E01373026008C003F308E0015303C000D
:100DC000A40016303D00A4000800F400F02E01300D
:100DD000F2007208F4070130F0070030F13DF02E08
:100DE00070088400710885000008F200740886000D
:100DF000870101087206031DFE2EFF2E092F7408BD
:100E0000860087010108031D062F072FE72E092FF3
:100E1000092F70088400710885000008F200F301B2
:100E2000F209F309F20A0319F30A7408860087012C
:100E300001087207F00073080318730AF100202FED
:100E40000800F900F701F801F301F401F501F601DA
:100E5000682F86319A268731F2007208FA000D3029
:100E60007A06031D342F352F3A2F0130F30000305E
:100E7000F400462F0A307A06031D3F2F402F462FDD
:100E80000130F5000030F600462F462F7A08F200B8
:100E9000790886008701720881000130F20072082B
:100EA000F9070130F7070030F83D7308740403199F
:100EB0005A2F5B2F682F750876040319602F612F56
:100EC000682F7808F1007708F000732F732F682FD0
:100ED00071087802031D6E2F70087702031C712FB2
:100EE000722F292F732F080086318A2687315230BE
:100EF00086000030870020308400003085001030EC
:100F0000FB0016001A00FB0B812F423086000030D8
:100F1000870030308400003085001030FB00160060
:100F20001A00FB0B8F2F2000C001C101972F0D303D
:100F3000F1008830F2008631AB2687311030F000A6
:100F40000030F100203087312127873171082000DF
:100F5000C1007008C0001030F0000030F1003030E7
:100F600087312127873171082000C1007008C00037
:100F70000830F0008830F10030308631E5268731C6
:100F800070087104031DC52FC62FCA2F22000E152D
:100F9000CE2FCE2F22000E14CE2FCE2F0030F100F8
:100FA0008830F2008631AB2687311030F0000030F7
:100FB000F100203087312127873171082000C100DE
:100FC0007008C0001030F0000030F1003030873180
:100FD0002127873171082000C1007008C000C001BE
:100FE000C101972F972F80310228423084000030B2
:100FF0008500203086315926873120008731742FB3
:10100000413454342B344934503452343F34003456
:101010004F344B340D340A340034413454340A34E0
:0210200000349A
:020000040001F9
:04000E00E4FFFFFE0E
:00000001FF
