:020000040000FA
:08000000803102288731D52F61
:1004D40008001630210097000800640080010131F3
:1004E400890B702A00347830210099009A01980110
:1004F40024009D0108008231D92282318231D9221F
:1005040082318231D92282310800F000892A200008
:10051400111E8D2A8E2A892A8F2A700823009A0098
:100524000800093023009F0090309D0024309E0075
:10053400A0309B0001309C0008008231F8228231F7
:1005440082317522823182316B22823182316A2278
:1005540082318231932282310800B02A2000911E18
:10056400B42AB52AB02A23009D1CB92ABA2ABD2A66
:100574001D121D16BD2A1908BF2A0800CE2A7108AB
:10058400840072088500000882318722823101309C
:10059400F1070030F23DCE2A71088400720885000C
:1005A4001200031DD62AD72AC12AD82A08002200FD
:1005B4000C16DC2A0530F1000F30F000F130890B05
:1005C400E12AF00BE12AF10BE12A0000E92A2200DA
:1005D4000C120530F1000F30F000F130890BF02AD5
:1005E400F00BF02AF10BF02A0000080022008C0125
:1005F4008E01273021008C002F308E000130230023
:100604008E0017308C0024008C018E012100951778
:1006140025008C018E01373026008C003F308E007F
:1006240015303C00A40016303D00A4000800F7007B
:100634007708F2007208F600242B0130F2007208E9
:10064400F707242B7708860087010108031D2B2B4D
:100654002C2B1F2B2D2B7608F2000030F300F2090F
:10066400F309F20A0319F30A7708F4000030F500DD
:1006740072087407F0007308753DF100412B0800FF
:10068400F4004D2B0130F2007208F4070130F0073A
:100694000030F13D4D2B700884007108850000087E
:1006A400F20074088600870101087206031D5B2BA3
:1006B4005C2B662B7408860087010108031D632BDD
:1006C400642B442B662B662B70088400710885000C
:1006D4000008F200F301F209F309F20A0319F30A1C
:1006E40074088600870101087207F0007308031874
:1006F400730AF1007D2B08002100A10020006E0880
:10070400E9006D08E8002100210886318A2683313A
:1007140020006F082100A0002008FC002108863179
:10072400002683317D082000EE007C08ED000E30A9
:10073400F0008830F1002100210883314223833105
:1007440070087104031DA72BA82BAA2BAE2BAE2B6C
:1007540082317D228331AE2B0030F000F100403035
:10076400F2000030F3002100210887312B27833168
:100774000800FD007D08FB007B08FC007D08833138
:10078400192383317008FB007B08FD07E02B01303F
:10079400F9020030FA3B7808860087010108FB0063
:1007A4007D08860087017B0881000130FB007B08FF
:1007B400F8070130FB007B08FD07E02B79087A0479
:1007C4000319E52BE62BF02B780886008701010836
:1007D400031DED2BEE2BC92BF02BF02B7D0886008F
:1007E400870181010130FB007B08FD07F92B08001C
:1007F400F7007708F4007408F6001D2C0130F202AB
:100804000030F33B760886008701F60A7108F5008C
:100814007008F400F00A0319F10A740884007508DA
:1008240085000008C03F8908031D192C1A2C1D2CB3
:100834002E2C2E2C1D2C72087304031D222C232C09
:10084400002C2E2C2E2C7608860087018101013085
:10085400F4007408F6072E2C0130F2020030F33B4A
:10086400720A031D392C730A031D392C3A2C252CCA
:100874003B2C0800A030860001308700A3308400A0
:100884000030850040302100A20016001A00A20B9F
:10089400472C20308600023087002030840001304D
:1008A40085004030A20016001A00A20B552CE3016B
:1008B400E40182319F2284315F2C20008E1D632C41
:1008C400642C7A2C22000C16672C2100640820006A
:1008D400EE00210063082000ED0020302100A2007A
:1008E40022082000EF00A33083317E2384317A2C48
:1008F40020000E080E087E2C22000C125F2C5F2CA8
:100904005F2C80310228F901FA01F501F601F701A3
:10091400F801C62C8231AF228431F4007408FB0044
:100924000D307B06031D972C982C9D2C0130F5006F
:100934000030F600A92C0A307B06031DA22CA32C40
:10094400A92C0130F7000030F800A92CA92C70085C
:100954008600710887007B0881000130F0070030B1
:10096400F13D0130F9070030FA3D750876040319AA
:10097400BC2CBD2CC62C770878040319C22CC32CBC
:10098400C62CD12CD12CC62C73087A02031DCC2C76
:1009940072087902031CCF2CD02C8C2CD12C7A0811
:1009A400F1007908F000D62C08002000E500E301EE
:1009B400E401E601E701A03086000230870023301D
:1009C4008400003085004030A20016001A00A20BFB
:1009D400E72C5230F1008830F2008231C022843199
:1009E4002330F0000030F1004030F2000030F3001A
:1009F40084318524843171082000E7007008E60002
:100A04002330F0000030F1006708F3006608F200BC
:100A140065088331FA23843120006608E3076708F8
:100A2400E43D2330F0000030F1004030F2000030AB
:100A3400F30084318524843171082000E7007008B4
:100A4400E6002330A2002208F8006708FA006608CE
:100A5400F90065088331BB23843120006608E3076D
:100A64006708E43D6408A1006308A000392D08006C
:100A74002000E500E301E401E601E701A03086007F
:100A84000330870023308400003085004030A2000A
:100A940016001A00A20B4A2D2130F1008830F20012
:100AA4008231C02285312330F0000030F100403023
:100AB400F2000030F3008431852485317108200070
:100AC400E7007008E6002330F0000030F10067080A
:100AD400F3006608F20065088331FA2385312000AB
:100AE4006608E3076708E43D2330F0000030F100B6
:100AF4004030F2000030F3008431852485317108E0
:100B04002000E7007008E6002330A2002208F80065
:100B14006708FA006608F90065088331BB2385314C
:100B240020006608E3076708E43D6408A100630841
:100B3400A0009C2D08002000E500E301E401E6018B
:100B4400E701203086000430870023308400003021
:100B540085004030A20016001A00A20BAD2D113002
:100B6400F1008830F2008231C02285312330F00058
:100B74000030F1004030F2000030F300843185246D
:100B8400853171082000E7007008E6002330F0008A
:100B94000030F1006708F3006608F200650883314D
:100BA400FA23853120006608E3076708E43D233013
:100BB400F0000030F1004030F2000030F3008431E6
:100BC4008524853171082000E7007008E600233091
:100BD400A2002208F8006708FA006608F900650810
:100BE4008331BB23853120006608E3076708E43DB1
:100BF4006408A1006308A000FF2D08002000A400E1
:100C0400A201A301A501A6010030F1008830F20081
:100C14008231C02286310B302000A1002630A00092
:100C24005D30890B132EA00B132EA10B132E003253
:100C34007C08F0000130F1004030F2000030F30095
:100C440084318524863171082000A6007008A5002F
:100C54007C08F0000130F1002608F3002508F200BA
:100C640024088331FA23863120002508A2072608A8
:100C7400A33D3630F1008830F2008231C022863143
:100C84007C08F0000130F1004030F2000030F30045
:100C940084318524863171082000A6007008A500DF
:100CA4007C08F0000130F1002608F3002508F2006A
:100CB40024088331FA23863120002508A207260858
:100CC400A33D7C08F0000130F1004030F200003018
:100CD400F30084318524863171082000A600700851
:100CE400A5007C08F0000130F1002608F300250877
:100CF400F20024088331FA23863120002508A20754
:100D04002608A33D2308FD002208FC00892E0800C4
:100D14002000EC006C088431D7248631200021089F
:100D2400E9002008E8004B30F0008830F1006C083E
:100D340083314223863170087104031DA22EA32E31
:100D4400B02E05302000EB000F30EA00F130890BA3
:100D5400A92EEA0BA92EEB0BA92EB42E82317D22EB
:100D64008631B42E0030F000F1004030F200003043
:100D7400F30020006C0887312B27863120006C0893
:100D840085313A25863120002108E9002008E80051
:100D94004B30F0008830F1006C08833142238631F7
:100DA40070087104031DD72ED82EE52E05302000BF
:100DB400EB000F30EA00F130890BDE2EEA0BDE2E59
:100DC400EB0BDE2EE92E82317D228631E92E0030B6
:100DD400F000F1004030F2000030F30020006C0815
:100DE40087312B27863120006C0885319D2586317B
:100DF40020002108E9002008E8004B30F00088308A
:100E0400F1006C0883314223863170087104031D9C
:100E14000C2F0D2F1A2F05302000EB000F30EA00A5
:100E2400F130890B132FEA0B132FEB0B132F1E2F0B
:100E340082317D2286311E2F0030F000F1004030D7
:100E4400F2000030F30020006C0887312B27863134
:100E54000800F8007808F4007408F90072087304B4
:100E6400031D352F362F382FD42FD42F7008F400BC
:100E7400790886008701740881007008F4007208FC
:100E8400FF3E7907F5007508860087017408810024
:100E9400003073020330031972020318522F532FC8
:100EA400552FD42FD42F7008F400790A86008701B7
:100EB400740881007008F4007908023E86008701F6
:100EC400740881007008F4007208FE3E7907F5008A
:100ED400750886008701740881007008F4007208A0
:100EE400FD3E7907F50075088600870174088100C6
:100EF400003073020730031972020318822F832F04
:100F0400852FD42FD42F7008F4007908033E86006F
:100F14008701740881007008F4007208FC3E7907A8
:100F2400F50075088600870174088100003073029B
:100F34000930031972020318A02FA12FA32FD42F55
:100F4400D42F7909F4007A09F500F40A0319F50A93
:100F540000307405F60000307505F7007608F400DB
:100F64007408F9077608F2027708F33BFC30F205BF
:100F7400FF30F305CD2F7008F4007908860087014F
:100F8400740881000130F2020030F33B0130F400B8
:100F94007408F907CD2F72087304031DD22FD32FC1
:100FA400BD2FD42F0800A0308400013085004030CC
:100FB40082316F2287312030840002308500403036
:100FC40082316F228731A0308400023085004030A6
:100FD40082316F228731A030840003308500403095
:100FE40082316F2287312030840004308500403004
:100FF40082316F228731200084313C2C41345434B7
:101004002B3443344D34473453343D342234323456
:1010140039343334363422340D340A340034413410
:1010240054342B3443345334433453343D34223412
:10103400473453344D3422340D340A3400344134AB
:1010440054342B3443344D34473446343D343134F2
:101054000D340A34003443344F344F344B34493460
:10106400453453341A340034423454344E345F34E7
:1010740031341A340034423454344E345F3432340C
:101084001A340034423454344E345F3433341A3412
:1010940000340D340A344F344B340D340A340034E4
:0A10A400413454340D340A34003492
:020000040001F9
:04000E00E4FFFFFE0E
:00000001FF
