:020000040000FA
:10000000803102288731B52F163021009700080073
:100010007108F5007008F40012280130F007003074
:10002000F13D122870088400710885001200031D3C
:100030001A281B280D281C287409F2007509F300E2
:10004000F20A0319F30A70087207F0007108733D91
:10005000F1002A2808007108F8007008F7004D2800
:100060000130F3020030F43B7808F6007708F50021
:10007000F70A0319F80A75088600760887007208DF
:1000800084008501F20A0008C03F8908031D492841
:100090004A284D285F285F284D2873087404031DE3
:1000A0005228532830285F285F2877088600780870
:1000B000870081010130F7070030F83D5F280130EB
:1000C000F3020030F43B730A031D6A28740A031D0F
:1000D0006A286B2855286C2808007708FD007608E8
:1000E000FC007708F1007608F000803108208031AC
:1000F0007008F6077108F73D95280130F9020030C5
:10010000FA3B7808860087010108FB007608860024
:10011000770887007B0881000130FB007B08F80727
:100120000130F6070030F73D952879087A04031965
:100130009A289B28A5287808860087010108031DB6
:10014000A228A3287D28A528A52876088600770858
:10015000870081010130F6070030F73DAF28080025
:100160002000EC0021002A082000E90021002908D5
:100170002000E8006C0886312726803120006C08BA
:1001800084313F248031200021082100AA00200072
:1001900020082100A90020006C08A0000130A10067
:1001A0004C30A2009030A3008131DE21803120004C
:1001B000200821040319DD28DE28E028E428E428AB
:1001C0008F3144278031E42820006C08F000013092
:1001D000F1000030F200F3004030F4000030F50090
:1001E0008631E526803108002000EC0021002A0835
:1001F0002000E900210029082000E8006C08863171
:100200002726803120006C088431D72480312000DB
:1002100021082100AA00200020082100A9002000B8
:100220006C08A0000130A1004C30A2009030A30067
:100230008131DE2180312000200821040319212989
:1002400022292429282928298F3144278031282947
:1002500020006C08F0000130F1000030F200F300E3
:100260004030F4000030F5008631E526803108008A
:100270002100CC002A082000E900210029082000E4
:10028000E80021004C088631272681312030860085
:1002900002308700AC308400003085002030200020
:1002A000EC0016001A00EC0B5129AC3085316F259B
:1002B0008131200021082100AA002000200821000F
:1002C000A900AC302000A0000030A1004C30A200FA
:1002D0009030A3008131DE218131200020082104EB
:1002E00003197329742976297A297A298F314427A9
:1002F00081317A2921004C08F0000130F1000030F2
:10030000F200F3004030F4000030F5008631E526BD
:1003100081310800FA00F701F801F301F401F50159
:10032000F601CD298F3176278131F2007208F9006C
:100330000D307906031D9D299E29A3290130F30064
:100340000030F400AF290A307906031DA829A92935
:10035000AF290130F5000030F600AF29AF29790848
:10036000F2007A0886008701720881000130F200ED
:100370007208FA070130F7070030F83D730874047B
:100380000319C329C429CD29750876040319C9297D
:10039000CA29CD29D829D829CD2971087802031D69
:1003A000D32970087702031CD629D7299229D82986
:1003B0007808F1007708F000DD2908002000220805
:1003C00023040319E429E529352A2308F10022082A
:1003D000F00080310820813171082000A5007008EC
:1003E000A400232A2108F1002008F0002308F300CC
:1003F0002208F2002508F5002408F4008331622366
:10040000813170087104031D062A072A082A382A38
:1004100020002008013EF0000030213DF1002208BC
:100420008400230885000008FC00FD017C08F20020
:100430007D08F3008F31BF27813171082000A100B2
:100440007008A000232A200821040319282A292A39
:10045000352A20088600210887000108031D312A5B
:10046000322AF229352A352A352AA001A101382A53
:1004700008002000E500E301E401E601E701203087
:10048000860004308700233084000030850040302F
:10049000A20016001A00A20B492A4230F100903047
:1004A000F2008F31872782314030F0000030F100B8
:1004B000233081318A21823171082000E7007008E1
:1004C000E6006508F0000030F1002330A2002208A9
:1004D000F2006708F4006608F30080312B208231B7
:1004E00020006608E3076708E43D4030F000003074
:1004F000F100233081318A21823171082000E70028
:100500007008E6006508F6000030F7002330A2000E
:100510002208F8006708FA006608F90080316D20AB
:10052000823120006608E3076708E43D6408A10003
:100530006308A0009B2A08002000E500E301E40115
:10054000E601E701A03086000430870023308400F4
:10055000003085004030A20016001A00A20BAC2A21
:100560002130F1009030F2008F3187278231403006
:10057000F0000030F100233081318A21823171088E
:100580002000E7007008E6006508F0000030F10088
:100590002330A2002208F2006708F4006608F30086
:1005A00080312B20823120006608E3076708E43D94
:1005B0004030F0000030F100233081318A21823157
:1005C00071082000E7007008E6006508F6000030BA
:1005D000F7002330A2002208F8006708FA00660836
:1005E000F90080316D20823120006608E30767083A
:1005F000E43D6408A1006308A000FE2A0800200072
:10060000E500E301E401E601E70120308600053062
:10061000870023308400003085004030A20016009F
:100620001A00A20B0F2B1130F1009030F2008F3125
:10063000872782314030F0000030F10023308131D3
:100640008A21823171082000E7007008E600650801
:10065000F0000030F1002330A2002208F200670809
:10066000F4006608F30080312B20823120006608F8
:10067000E3076708E43D4030F0000030F10023302C
:1006800081318A21823171082000E7007008E6007C
:100690006508F6000030F7002330A2002208F800B9
:1006A0006708FA006608F90080316D208231200069
:1006B0006608E3076708E43D6408A1006308A0003A
:1006C000612B08007108F9007008F8007308FB003E
:1006D0007208FA000130F4020030F53B740A031D81
:1006E000752B750A031D752B762B882BF001F101F4
:1006F000CA2BCA2B882B0130F8070030F93D013096
:10070000FA070030FB3D0130F4020030F53B882B46
:10071000780886007908870001080319902B912B2F
:10072000B22B7A0884007B08850012000319992BEC
:100730009A2BB22B7408750403199F2BA02BB22B94
:100740007A0884007B0885000008F6007808860097
:1007500079088700010876060319AF2BB02B7B2B95
:10076000B22BB22B7A0884007B0885000008F600C3
:10077000F701F609F709F60A0319F70A780886005F
:100780007908870001087607F00077080318770AD0
:10079000F100CA2B0800A03086000230870020300C
:1007A00084000130850040302000ED0016001A0062
:1007B000ED0BD62BA030860003308700A0308400DC
:1007C000013085004030ED0016001A00ED0BE42BDF
:1007D0002100CD01CE018F3166278331EF2B200020
:1007E0008E1DF32BF42B072C22000C16F72B210067
:1007F0004E08AA004D08A900A0302000ED006D08A9
:100800002100AB002030813138218331072C2000BA
:100810000E1D0B2C0C2C1F2C22000C160F2C210053
:100820004E08AA004D08A900A0302000ED006D0878
:100830002100AB0020308031B02083311F2C2000FC
:100840008E1C232C242C382C22000C16272C210043
:100850004E08AA004D08A900A0302000ED006D0848
:100860002100AB0020308031F4208331382C382C2B
:1008700022000C12EF2BEF2BEF2B803102282000EF
:10088000B600B401B501B701B8016030860001308F
:10089000870024308400003085001030A20016004C
:1008A0001A00A20B4F2C0030F1009030F2008F3173
:1008B000872784310B302000A3002630A2005D3052
:1008C000890B602CA20B602CA30B602C00324030F3
:1008D000F0000030F100243081318A218431710828
:1008E0002000B8007008B7003608F0000130F100B1
:1008F0002430A2002208F2003808F4003708F30080
:1009000080312B20843120003708B4073808B53DEA
:100910003430F1009030F2008F318727843140303D
:10092000F0000030F100243081318A2184317108D7
:100930002000B8007008B7003608F6000130F70054
:100940002430A2002208F8003808FA003708F9001D
:1009500080316D20843120003708B4073808B53D58
:100960004030F0000030F100243081318A218431A0
:1009700071082000B8007008B7003608F600013092
:10098000F7002430A2002208F8003808FA003708DF
:10099000F90080316D20843120003708B407380811
:1009A000B53D3508A1003408A000D62C0800200071
:1009B000B600B401B501B701B801E03086000130DE
:1009C000870024308400003085001030A20016001B
:1009D0001A00A20BE72C0030F1009030F2008F31AA
:1009E000872784310B302000A3002630A2005D3021
:1009F000890BF82CA20BF82CA30BF82C00324030FA
:100A0000F0000030F100243081318A2184317108F6
:100A10002000B8007008B7003608F0000130F1007F
:100A20002430A2002208F2003808F4003708F3004E
:100A300080312B20843120003708B4073808B53DB9
:100A40003B30F1009030F2008F3187278431403005
:100A5000F0000030F100243081318A2184317108A6
:100A60002000B8007008B7003608F6000130F70023
:100A70002430A2002208F8003808FA003708F900EC
:100A800080316D20843120003708B4073808B53D27
:100A90004030F0000030F100243081318A2184316F
:100AA00071082000B8007008B7003608F600013061
:100AB000F7002430A2002208F8003808FA003708AE
:100AC000F90080316D20843120003708B4073808E0
:100AD000B53D3508A1003408A0006E2D08002000A7
:100AE000B600B401B501B701B801CF3086000030BF
:100AF000870024308400003085001030A2001600EA
:100B00001A00A20B7F2D0030F1009030F2008F31DF
:100B1000872785311030F0000030F100243081311A
:100B20008A21853171082000B8007008B7003608A6
:100B3000F0000030F1002430A2002208F200380852
:100B4000F4003708F30080312B208531200037086E
:100B5000B4073808B53D2D30F1009030F2008F31E8
:100B60008727853105302000A3000F30A200F13027
:100B7000890BB82DA20BB82DA30BB82D1030F000A7
:100B80000030F100243081318A2185317108200044
:100B9000B8007008B7003608F6000030F7002430BF
:100BA000A2002208F8003808FA003708F90080315E
:100BB0006D20853120003708B4073808B53D103066
:100BC000F0000030F100243081318A218531710834
:100BD0002000B8007008B7003608F6000030F700B3
:100BE0002430A2002208F8003808FA003708F9007B
:100BF00080316D20853120003708B4073808B53DB5
:100C00001030F0000030F100243081318A2185312C
:100C100071082000B8007008B7003608F6000030F0
:100C2000F7002430A2002208F8003808FA0037083C
:100C3000F90080316D20853120003708B40738086D
:100C4000B53D3508A1003408A000262E0800DF308D
:100C5000860000308700A030840000308500083016
:100C60002000EA0016001A00EA0B322EA030823172
:100C70003922863120002108E9002008E800A03050
:100C8000A0000030A1004730A2009030A3008131C5
:100C9000DE2186312000200821040319502E512E18
:100CA0005E2E05302000EB000F30EA00F130890B9A
:100CB000572EEA0B572EEB0B572E622E8F314427FF
:100CC0008631622EA030F0000030F1000030F200DA
:100CD000F3004030F4000030F5008631E52686311F
:100CE000A03082319C22863120002108E9002008B2
:100CF000E800A030A0000030A1004730A2009030F2
:100D0000A3008131DE21863120002008210403194F
:100D10008A2E8B2E982E05302000EB000F30EA0033
:100D2000F130890B912EEA0B912EEB0B912E9C2E1C
:100D30008F31442786319C2EA030F0000030F10026
:100D40000030F200F3004030F4000030F50086314E
:100D5000E5268631A0308231FF228631200021082D
:100D6000E9002008E800A030A0000030A1004730D2
:100D7000A2009030A3008131DE21863120002008BE
:100D800021040319C42EC52ED22E05302000EB00FD
:100D90000F30EA00F130890BCB2EEA0BCB2EEB0B98
:100DA000CB2ED62E8F3144278631D62EA030F000A0
:100DB0000030F1000030F200F3004030F400003069
:100DC000F5008631E526863108007108FD007008BF
:100DD000FC0074087504031DEE2EEF2EF12EB42FC7
:100DE000B42F7C0886007D08870072088100740893
:100DF000FF3EF600FF30753DF70076087C07F800EF
:100E000077087D3DF9007808860079088700720828
:100E10008100003075020330031974020318112F8A
:100E2000122F142FB42FB42F7C08013EF60000308F
:100E30007D3DF700760886007708870072088100FC
:100E40007C08023EF60000307D3DF7007608860003
:100E500077088700720881007408FE3EF600FF30B4
:100E6000753DF70076087C07F80077087D3DF900AE
:100E70007808860079088700720881007408FD3EB2
:100E8000F600FF30753DF70076087C07F80077081C
:100E90007D3DF90078088600790887007208810096
:100EA000003075020730031974020318582F592FA8
:100EB0005B2FB42FB42F7C08033EF60000307D3D3D
:100EC000F7007608860077088700720881007408AA
:100ED000FC3EF600FF30753DF70076087C07F80011
:100EE00077087D3DF9007808860079088700720848
:100EF0008100003075020930031974020318812F34
:100F0000822F842FB42FB42F7C09F6007D09F700BF
:100F1000F60A0319F70A03307605FA000030770560
:100F2000FB007A08FC077B08FD3D7A08F4027B0889
:100F3000F53BFC30F405FF30F505AD2F7C0886004D
:100F40007D088700720881000130F4020030F53B13
:100F50000130FC070030FD3DAD2F74087504031D02
:100F6000B22FB32F9E2FB42F0800CF308400003053
:100F7000850018308F31362787316030840001308A
:100F8000850010308F3136278731E0308400013002
:100F9000850010308F3136278731203084000230B1
:100FA000850020308F3136278731A0308400023011
:100FB000850040308F3136278731A03084000330E0
:100FC000850040308F31362787312030840004304F
:100FD000850040308F3136278731A03084000430BF
:100FE000850040308F31362787312030840005302E
:100FF000850040308F313627873120008331CB2B5D
:101E6A000800640080010131890B372F0034783073
:101E7A00210099009A01980124009D0108008F31E0
:101E8A00A0278F318F31A0278F318F31A0278F3133
:101E9A000800F000502F2000111E542F552F502FEC
:101EAA00562F700823009A000800093023009F006B
:101EBA0090309D0024309E00A0309B0001309C0091
:101ECA0008008F31DF278F318F313C278F318031E6
:101EDA0004208F318F3135278F318F315A278F3137
:101EEA000800772F2000911E7B2F7C2F772F23004D
:101EFA009D1C802F812F842F1D121D16842F1908D7
:101F0A00862F0800952F7108840072088500000842
:101F1A008F314E278F310130F1070030F23D952F76
:101F2A0071088400720885001200031D9D2F9E2FE0
:101F3A00882F9F2F080022000C16A32F0530F100CE
:101F4A000F30F000F130890BA82FF00BA82FF10BFE
:101F5A00A82F0000B02F22000C120530F1000F301C
:101F6A00F000F130890BB72FF00BB72FF10BB72F19
:101F7A0000000800700886007108870001087206D0
:101F8A00031DC82FC92FCA2FDE2F7108F50070084C
:101F9A00F400F00A0319F10A74088600750887002C
:101FAA000108031DD92FDA2FBF2FDB2FF001F10112
:101FBA00DE2F080022008C018E01273021008C00C0
:101FCA002F308E00013023008E0017308C00240041
:101FDA008C018E012100951725008C018E01373066
:101FEA0026008C003F308E0015303C00A4001630CD
:101FFA003D00A4000800413454342B3443344D349A
:10200A00473453343D342234323439343334363459
:10201A0022340D340A340034413454342B344334DA
:10202A005334433453343D342234473453344D34D7
:10203A0022340D340A340034413454342B344334BA
:10204A004D34473446343D3431340D340A34003487
:10205A00423454344E345F3431341A340034423406
:10206A0054344E345F3432341A34003442345434E3
:10207A004E345F3433341A340034413454340D341A
:10208A000A3400344F344B340D340A3400344D349E
:06209A004734533400340A
:020000040001F9
:04000E00E4FFFFFE0E
:00000001FF
